{"address":"0xEd2bf082129A168d0dbC228Cdd10974ba61da588","bytecode":"0x610462610053600b82828239805160001a607314610046577f4e487b7100000000000000000000000000000000000000000000000000000000600052600060045260246000fd5b30600052607381538281f3fe730000000000000000000000000000000000000000301460806040526004361061004b5760003560e01c806308dd4e37146100505780634c337c90146100805780639415fe0e146100b0575b600080fd5b61006a600480360381019061006591906101e1565b6100e0565b604051610077919061021d565b60405180910390f35b61009a60048036038101906100959190610274565b6100ea565b6040516100a791906102d6565b60405180910390f35b6100ca60048036038101906100c59190610274565b610152565b6040516100d791906102d6565b60405180910390f35b6000819050919050565b6000828460026100fa9190610320565b610104919061035e565b8360018460026101149190610320565b61011e919061035e565b6101289190610320565b6101329190610320565b84600261013f9190610320565b6101499190610392565b90509392505050565b6000600283600184610164919061035e565b61016e9190610320565b85600261017b9190610320565b6101859190610392565b836101909190610320565b61019a91906103fb565b90509392505050565b600080fd5b60008160030b9050919050565b6101be816101a8565b81146101c957600080fd5b50565b6000813590506101db816101b5565b92915050565b6000602082840312156101f7576101f66101a3565b5b6000610205848285016101cc565b91505092915050565b610217816101a8565b82525050565b6000602082019050610232600083018461020e565b92915050565b600063ffffffff82169050919050565b61025181610238565b811461025c57600080fd5b50565b60008135905061026e81610248565b92915050565b60008060006060848603121561028d5761028c6101a3565b5b600061029b8682870161025f565b93505060206102ac8682870161025f565b92505060406102bd8682870161025f565b9150509250925092565b6102d081610238565b82525050565b60006020820190506102eb60008301846102c7565b92915050565b7f4e487b7100000000000000000000000000000000000000000000000000000000600052601160045260246000fd5b600061032b82610238565b915061033683610238565b92508163ffffffff0483118215151615610353576103526102f1565b5b828202905092915050565b600061036982610238565b915061037483610238565b925082821015610387576103866102f1565b5b828203905092915050565b600061039d82610238565b91506103a883610238565b92508263ffffffff038211156103c1576103c06102f1565b5b828201905092915050565b7f4e487b7100000000000000000000000000000000000000000000000000000000600052601260045260246000fd5b600061040682610238565b915061041183610238565b925082610421576104206103cc565b5b82820490509291505056fea2646970667358221220364ed94ee47eb3f2729440fcc139a5e3603b5d8dc6eaab43ae976e345a16992864736f6c63430008090033","abi":[{"inputs":[{"internalType":"int32","name":"rads","type":"int32"}],"name":"sin","outputs":[{"internalType":"int32","name":"","type":"int32"}],"stateMutability":"pure","type":"function"},{"inputs":[{"internalType":"uint32","name":"firstVal","type":"uint32"},{"internalType":"uint32","name":"step","type":"uint32"},{"internalType":"uint32","name":"lastIdx","type":"uint32"}],"name":"sumOfArithmeticProgression","outputs":[{"internalType":"uint32","name":"","type":"uint32"}],"stateMutability":"pure","type":"function"},{"inputs":[{"internalType":"uint32","name":"firstVal","type":"uint32"},{"internalType":"uint32","name":"step","type":"uint32"},{"internalType":"uint32","name":"lastIdx","type":"uint32"}],"name":"sumOfGeometricProgression","outputs":[{"internalType":"uint32","name":"","type":"uint32"}],"stateMutability":"pure","type":"function"}]}